:020000040800F2
:10000000081900209D010008A5010008A7010008AB
:10001000A9010008AB010008AD01000800000000C4
:10002000000000000000000000000000AF01000818
:10003000B101000800000000B3010008B50100088C
:10004000B7010008B7010008B7010008B7010008B0
:10005000B7010008B7010008B50B0008B701000898
:10006000B7010008B7010008B7010008B701000890
:10007000B7010008B7010008B7010008B701000880
:10008000B7010008B7010008B7010008B701000870
:10009000B7010008B7010008B7010008B701000860
:1000A000B7010008B7010008B7010008B701000850
:1000B000B7010008B7010008B7010008B701000840
:1000C000B7010008B7010008B7010008B701000830
:1000D000B701000855100008D9100008B701000842
:1000E000B7010008B7010008B701000800F002F8E6
:1000F00000F045F80AA090E8000C82448344AAF17D
:100100000107DA4501D100F03AF8AFF2090EBAE87A
:100110000F0013F0010F18BFFB1A43F0010318473B
:10012000A4130000C4130000103A24BF78C878C19B
:10013000FAD8520724BF30C830C144BF04680C60ED
:10014000704700000023002400250026103A28BF35
:1001500078C1FBD8520728BF30C148BF0B60704739
:10016000642900F0AD80632900F0AF81732900F0AD
:10017000B481002070471FB51FBD10B510BD00F041
:10018000B0F91146FFF7F7FF00F0E8FF00F0CEF9F5
:1001900003B4FFF7F2FF03BC00F0D6F9094880472B
:1001A00009480047FEE7FEE7FEE7FEE7FEE7FEE759
:1001B000FEE7FEE7FEE7FEE704480549054A064B71
:1001C00070470000F50F0008ED000008081300203C
:1001D0000819002008150020081500200FB41CB5D0
:1001E000074B06AA7B4469460090059800F04BF93E
:1001F0000020694600F05AF91CBC5DF814FB0000B1
:10020000C50200002DE9F0410E46044600202062A0
:100210002046E168884730B3252805D0D4E901217C
:100220009047206A401CF2E7E16820460027884793
:10023000050018D0A5F14100192802D820354FF447
:1002400000673246294620462760FFF789FF40B104
:10025000012804D0F61D26F007060836D8E7361D1B
:10026000D6E72846DAE7206ABDE8F08170B50C468B
:100270000546012A05D02878800600D5EA690023C2
:1002800002E0012305E05B1C934202D2E05C0028FF
:10029000F9D1A869E618C01AA861286A184428622A
:1002A0002846AFF3008004E0D5E9012114F8010BE2
:1002B0009047B442F8D32846AFF3008070BD0000E9
:1002C0002DE9F0410646002410687529314616A52F
:1002D00010D0AFF30080002802DA404213A507E0F7
:1002E00031688A0701D512A502E0490704D511A596
:1002F000012401E0AFF3008000210A2206F1240767
:1003000009E0B0FBF2FCB0FBF2F302FB1C00303062
:1003100078541846491C0028F3D123462A46304613
:10032000BDE8F04100F051B8000000002D000000D1
:100330002B0000002000000010B5431C02E010F864
:10034000011B71B18107FAD14FF0013202C88C1A3A
:100350008C4314EAC211F9D0C01A0A0603D0C01E99
:1003600010BDC01A10BD0A0401D0801E10BD0902C4
:10037000FCD0401E10BD4FF0000200B5134694465D
:100380009646203922BFA0E80C50A0E80C50B1F1ED
:100390002001BFF4F7AF090728BFA0E80C5048BF01
:1003A0000CC05DF804EB890028BF40F8042B08BF9F
:1003B000704748BF20F8022B11F0804F18BF00F89B
:1003C000012B70477047704770472DE9F0470D4685
:1003D00099469246044600F124080168880604D52F
:1003E000E06921F01001216000E00120A84201DD58
:1003F000471B00E00027A1697A1902EB0900081ADF
:10040000A0612078C00602D42046AFF30080002609
:1004100008E0D4E901211AF806009047206A401C40
:10042000761C20624E45F4DB2078C0060AD52046B3
:10043000AFF3008006E0D4E9012130209047206A24
:10044000401C2062381EA7F10107F4DC07E0D4E964
:10045000012118F805009047206A401C2062281EE0
:10046000A5F10105F3DC2046AFF3008020780006FB
:1004700002D50220BDE8F0870120FBE701694A1C94
:1004800002610878704700B58FB0CDE901310021D5
:10049000059105497944CDE9031011466846FFF7F7
:1004A000B1FE0FB000BD0000E5FFFFFF0A6802F8D3
:1004B000010B0A60704710B5436913B1AFF30080B8
:1004C00001E0FFF7D3FE012010BD127800F12401F6
:1004D0000A7000224A700122EDE711684FF0FF32E6
:1004E000E9E7754600F02CF8AE460500694653462C
:1004F00020F00700854618B020B5FFF75DFEBDE887
:1005000020404FF000064FF000074FF000084FF07A
:10051000000B21F00701AC46ACE8C009ACE8C0090B
:10052000ACE8C009ACE8C0098D46704710B5044678
:10053000AFF300802046BDE81040FFF729BE000061
:1005400000487047A812002001491820ABBEFEE702
:1005500026000200704700001948806940F004003E
:10056000174988611748006820F0FF0015490860A6
:100570000846006840F0080008601348006840F032
:1005800001001149086010480C30006840F001007B
:100590000D490C3108600D48806820F00F000B49B0
:1005A00088600620002809DB00F01F02012191402D
:1005B0004209920002F1E022C2F8001100BF704728
:1005C000001002400008014000040140000001400A
:1005D00010B5044603E014F8010B00F01BF8207876
:1005E0000028F8D110BD000010B5094AD2F8E82360
:1005F000521C4FF47A7392FBF3F403FB1421044A68
:10060000D2F8E823024B98541A46C2F8E81310BDFA
:100610005001002010B50F4AD2F8E823521C4FF4C5
:100620007A7392FBF3F403FB14210A4AD2F8EC2309
:100630008A420DD0074AD2F8E823064B98541A464E
:10064000C2F8E813044A128842F08002024B1A8072
:1006500010BD0000400500200C380140134880699F
:1006600044F204010843114988611148006840F0D0
:10067000B0000F49086040F271200E490880081D43
:10068000008842F2AC0108430A49091D0880252070
:10069000002809DB00F01F0201219140420992006D
:1006A00002F1E022C2F8001100BF704700100240C2
:1006B000040801400838014007484FF0E021486134
:1006C0000020886100BF4FF0E020006900F4803016
:1006D0000028F8D0704700004019010000B502461C
:1006E00002E0FFF7E9FF521E002AFAD100BD000028
:1006F0002DE9F04104460E463046FFF7EFFF00209B
:100700001C49C1F8F0032046FFF716FE804600257D
:10071000002727E0605D1749D1F8F013154A515CB6
:10072000884209D01046D0F8F003401C1146C1F8A9
:10073000F0030027002515E0605D0E49D1F8F013A5
:100740000C4A515C88420DD16D1C7F1C1046D0F8BC
:10075000F003401C1146C1F8F003474502D10120C7
:10076000BDE8F0810348D0F8F003B0F57A7FD1DB23
:100770000020F5E7300900202DE9F84F05460E4628
:1007800092462846FFF7D8FD83463046FFF7D4FD52
:1007900007464FF00008002400200090814616E034
:1007A00016F80800295D884204D0641C4FF0000848
:1007B000C14609E016F80800295D884204D109F114
:1007C000010908F10108641CB94500D101E05C454C
:1007D000E6DB00BFB9450AD1E01B0090002003E032
:1007E000295C0AF80010401C00998842F8DBBDE83B
:1007F000F88F00002DE9F05F04460D4617460020F3
:100800002A49C1F8F0032046FFF796FD81462846A5
:10081000FFF792FD83460026B046B24629E0A05D70
:100820002249D1F8F013214A515C88420AD010467F
:10083000D0F8F003401C1146C1F8F0034FF0000857
:10084000002616E0A05D1949D1F8F013174A515C53
:1008500088420ED1761C08F101081046D0F8F0034A
:10086000401C1146C1F8F003C84502D14FF0010AFF
:1008700005E00E48D0F8F003B0F57A7FCFDB00BF7B
:10088000BAF1000F10D000200CE00849D1F8F02395
:10089000D1F8F013491C054BC3F8F0131946895CD5
:1008A0002954401CB842F0DBBDE8F09F300900201D
:1008B00038B50122694604A0FFF79CFF9DF80000AF
:1008C0003038C4B2204638BD4950442C00000000E6
:1008D00070B59AB005460E4600241CA264211CA0E7
:1008E00000F068F8044614B902201AB070BD17A2CF
:1008F000642119A000F05EF804460CB90320F4E767
:1009000033462A4618A101A8FFF768FC1CA242F250
:10091000107101A800F04EF804460CB90420E4E779
:100920000AA264211AA000F045F804460CB905207B
:10093000DBE706A264211AA000F03CF8044600F0B0
:10094000FBF80CB90620D0E72046CEE74F4B00005D
:1009500041540D0A0000000041542B43574D4F44B1
:10096000453D310D0A00000041542B43574A415088
:100970003D222573222C222573220D0A000000003F
:100980005749464920434F4E4E4543544544000085
:1009900041542B4349504D55583D310D0A0000003C
:1009A00041542B4349505345525645523D312C3802
:1009B000300D0A002DE9F04106460F461546002489
:1009C00000F0BAF8304600F025F80BE0601CC4B225
:1009D000304600F01FF80BA10D48FFF7FFFB0C4855
:1009E000FFF7F6FD032C05DA39462846FFF780FEAF
:1009F0000028EBD0032C02DB0020BDE8F0810120B1
:100A0000FBE700007265747279210D0A0000000096
:100A10001811002010B5044603E014F8010B00F093
:100A20006DF820780028F8D110BD0000F0B585B031
:100A300005460E4600243046FFF77EFC074600F0D0
:100A40007BF83B462A4612A16846FFF7C7FB15A272
:100A500064216846FFF7AEFF044614B9072005B0CD
:100A6000F0BD3046FFF7D6FF2A460FA16846FFF7D4
:100A7000B5FB12A24FF4FA716846FFF79BFF0446DC
:100A80000CB90820EBE700F057F82046E7E7000034
:100A900041542B43495053454E443D25642C256415
:100AA0000D0A00003E00000041542B434950434CC6
:100AB0004F53453D25640D0A00000000434C4F5341
:100AC0004544000010B50C4AD2F8E823521C4FF4FC
:100AD0007A7392FBF3F403FB1421074AD2F8EC2358
:100AE0008A4207D0044AD2F8E823034B98541A46A6
:100AF000C2F8E81310BD00003009002010B50C4A00
:100B0000D2F8E823521C4FF47A7392FBF3F403FB00
:100B10001421074AD2F8E823054B98541A46C2F824
:100B2000E813044A128842F08002024B1A8010BD7A
:100B3000240D00200C44004010B54FF47A71054894
:100B4000FFF719FC00200349C1F8E803C1F8EC03E2
:100B500010BD0000300900201348C06940F4003087
:100B60001149C8611148006840F420600F490860CD
:100B70004FF49C700E490880081D008842F22C0139
:100B800008430B49091D08802620002809DB00F0D6
:100B90001F02012191404209920002F1E022C2F8B5
:100BA000001100BF70470000001002400008014023
:100BB0000844004000B50E48006840F001000C49B0
:100BC00008600C48006808B9012000E000200949CD
:100BD00008600846006818B1012000F039F802E00A
:100BE000022000F035F8C820FFF778FD00BD0000B6
:100BF000140401400800002000B5B3B064210B4884
:100C0000FFF7B9FB322201A909A0FFF7F3FD074A5C
:100C10000AA101A8FFF7B0FD0AA0FFF7D9FC03481D
:100C2000FFF7D6FC002033B000BD00007C1100208F
:100C300066737472696E673D00000000204854546A
:100C4000500000005245706C7920476F743A0000E4
:100C500000B50346012B09D10C48C06820F40050B0
:100C60000A49C86001200A4908600EE0022B09D138
:100C70000648C06840F400500449C8600020044998
:100C8000086002E00BB900F021F800BD001001403F
:100C9000000000200B48806940F01000094988617D
:100CA0000948406820F470000749486008464068D9
:100CB00040F4401048600846C06840F40050C860E6
:100CC00070470000001002400010014000B50B48C2
:100CD000006830B10A48C06840F400500849C86054
:100CE00008E00648006828B90548C06820F40050AC
:100CF0000349C8606420FFF7F1FC00BD0800002034
:100D00000010014010B5012406E0621E054B995CFD
:100D1000E0B200F0E6FA641C092CF6DB6420FFF771
:100D2000DDFC10BDE400002010B50021092000F01A
:100D3000D8FA01210A2000F0D4FA07210B2000F094
:100D4000D0FA01210C2000F0CCFA00210F2000F095
:100D5000C8FA10BD7CB50546002619E0002006E063
:100D6000295CC6F1080211410DF80010401C08284A
:100D7000F6DB012406E0621E1DF80210E0B200F06E
:100D8000B0FA641C092CF6DB4620FFF7A7FC761CA2
:100D9000082EE3DD07261AE0002007E0295CC6F1F3
:100DA00008029140C9B20DF80010401C0828F5DB7C
:100DB000012406E0621E1DF80210E0B200F091FA74
:100DC000641C092CF6DB6420FFF788FC761E002EDD
:100DD000E2DA7CBD70B51948FFF7AEFAC6B2174A21
:100DE00017A11E48FFF7FAF91C48FFF7F1FB002492
:100DF00020E01248005D2B2802D119A0FFF7E8FB84
:100E00000E48005D4138C5B21B2D0FDA0B48025D5C
:100E10002B4618A11148FFF7E1F91048FFF7D8FB5E
:100E20001E4901EBC500FFF795FF02E01C48FFF7E4
:100E300091FF641CB442DCDB70BD00007C1100201B
:100E4000546865207363726F6C6C20737472696E82
:100E500067206973203A25730D0A000044120020B0
:100E60005350414345204445544543544544200A8A
:100E70000000000054686520617272617920636827
:100E8000617220697320256320616E6420696E643D
:100E90006578206973203A25640D0A00140000204B
:100EA000E40000200D48806940F004000B4988618F
:100EB0000B480068C0F31300094908600846006841
:100EC00040F4001008600846006840F000700860B8
:100ED0000846006840F0005008607047001002406B
:100EE0000008014039B1084A1268012383401A43BF
:100EF000054B1A6006E0044A1268012383409A43B6
:100F0000014B1A60704700000C08014010B500F05A
:100F100001F810BD0CB50020019000903348006826
:100F200040F480303149086000BF3048006800F468
:100F3000003000900198401C0190009818B9019869
:100F4000B0F5A06FF1D12948006800F4003010B16D
:100F50000120009001E0002000900098012843D17A
:100F60002348006840F010002149086008460068E6
:100F700020F0030008600846006840F002000860A6
:100F80001A48406819494860084640684860084661
:100F9000406840F4806048600846406820F47C1057
:100FA00048600846406840F4E81048600846006819
:100FB00040F08070086000BF0C48006800F00070CE
:100FC0000028F9D00948406820F00300074948602C
:100FD0000846406840F00200486000BF034840688F
:100FE00000F00C000828F9D10CBD000000100240F0
:100FF0000020024010B51348006840F0010011497C
:10100000086008464068104908400E494860084694
:1010100000680E4908400B4908600846006820F443
:10102000802008600846406820F4FE0048604FF4C5
:101030001F008860FFF76AFF4FF0006004490860F6
:1010400010BD0000001002400000FFF8FFFFF6FE98
:1010500008ED00E018B51E48008800F0200038B107
:101060001B48001D0088C4B22046FFF7BDFA2DE0E2
:101070001748008800F0800040B31648D0F8E80315
:101080001449D1F8EC13884208D111480C3000887B
:1010900020F080000E490C31088017E00D48D0F890
:1010A000EC03401C4FF47A7190FBF1F201FB12004B
:1010B00000900848D0F8EC030649085C0449091D73
:1010C000088004490098C1F8EC0300BF18BD000077
:1010D000003801404005002018B51E48008800F087
:1010E000200038B11B48001D0088C4B22046FFF71D
:1010F000E9FC2DE01748008800F0800040B3164856
:10110000D0F8E8031449D1F8EC13884208D111480B
:101110000C30008820F080000E490C31088017E068
:101120000D48D0F8EC03401C4FF47A7190FBF1F2BB
:1011300001FB120000900848D0F8EC030649085C57
:101140000449091D088004490098C1F8EC0300BF58
:1011500018BD000000440040240D002000F05EF89F
:10116000FFF77CFAFFF7F8FCFFF794FDFFF7F4F9BF
:10117000FFF798FEFFF7D8FDFFF7C4FD16A119A0F1
:10118000FFF7A6FB05462A461AA12048FFF726F8D6
:101190001E48FFF71DFA1EE01D480068A8B1002197
:1011A0001CA0FFF7A5FA1C4908600846006890B12A
:1011B000FFF77EFB0446204600F040F80646FFF7A6
:1011C000BBFC00201449086005E0FFF703FE4FF464
:1011D000FA60FFF783FADFE773756D656468313293
:1011E0003300000047616C617879204D3331304520
:1011F00033330000546865204553502053746174A4
:101200007573206973203A25640D0A00EC000020F4
:1012100008000020495044000400002000204FF046
:10122000E02108616FF07F40486100208861084636
:10123000006940F0050008617047000070B5044681
:1012400000250A210DA0FFF753FA58B10DA0FFF7B2
:10125000BFF9FFF7D1FC104801682046FFF7E6FB15
:10126000054608E00DA0FFF7B3F9114801682046D4
:10127000FFF7DCFB0546284670BD00002F70616754
:10128000653100000A576562506167654D616E61A6
:10129000676572310A000000100000200A5765627D
:1012A000506167654D616E61676572320A000000CA
:1012B0000C00002070B5044600250FE00021052039
:1012C000FFF710FE04F080010720FFF70BFE600619
:1012D000040E01210520FFF705FE6D1C082DEDDB36
:1012E00070BD70B505460C4600210620FFF7FAFDDB
:1012F0002846FFF7DFFF2046FFF7DCFF012106202D
:10130000FFF7F0FD70BD00003C21444F435459509D
:10131000452068746D6C3E0A3C68746D6C3E0A3CF6
:10132000626F64793E0A3C68323E4C4544204D4130
:101330005452495820444953504C415920494E5425
:101340004552464143453C2F68323E0A3C666F7227
:101350006D20616374696F6E3D222F686F6D6570DB
:10136000616765223E0A20203C696E7075742074A6
:101370007970653D20227375626D697422207661F3
:101380006C75653D225355424D49542041474149B2
:101390004E21223E0A3C2F666F726D3E0A3C2F6240
:1013A0006F64793E0A3C2F68746D6C3E000000004B
:1013B0003C21444F43545950452068746D6C3E0A9B
:1013C0003C68746D6C3E0A3C626F64793E0A3C680E
:1013D000323E4C4544204D415452495820444953D3
:1013E000504C415920494E544552464143453C2FAB
:1013F00068323E0A3C666F726D20616374696F6E7D
:101400003D222F7061676531223E0A093C6C6162A2
:10141000656C20666F723D2266737472696E672216
:101420003E54797065206120537472696E673A3C4E
:101430002F6C6162656C3E0A202020203C696E7032
:10144000757420747970653D227465787422206902
:10145000643D2266737472696E6722206E616D65E9
:101460003D2266737472696E67222076616C7565C1
:101470003D22737472696E67223E3C2F696E7075EF
:10148000743E0A20203C696E707574207479706512
:101490003D20227375626D6974222076616C7565DA
:1014A0003D225355424D4954223E0A3C2F666F72ED
:1014B0006D3E0A3C2F626F64793E0A3C2F68746D62
:1014C0006C3E0000E414000800000020EC00000066
:1014D00028010008D0150008EC0000201C180000AE
:1014E00044010008000000000000000000000000AF
:1014F000B013000808130008182442427E424242FA
:101500007C4242427C42427C7E4040404040407EA1
:1015100078444242424244787E4040784040407E97
:101520007E404078404040407E4040405E42427EA7
:10153000424242427E4242427E1818181818187ED3
:101540007E08080808080838424244487048444267
:10155000404040404040407E42665A5A42424242E9
:101560004262524A4A4A46423C4242424242423C1B
:101570007E4242427E4040407C444444445448764B
:101580007C424244784442427E42407E0202427E95
:101590007E18181818181818424242424242427ED9
:1015A0004242424242241818424242425A7E664215
:1015B0004242241824424242424224181818181861
:1015C0007E0204081020407E0000000000000000A1
:04000005080000ED02
:00000001FF
